:020000040800F2
:1000000018100020D5010008FD290008231D000854
:10001000C9290008B1040008A5300008000000004C
:100020000000000000000000000000002D2C00086F
:10003000B504000800000000FF290008852C000816
:10004000EF010008EF010008EF010008EF010008D0
:10005000EF010008EF010008EF010008EF010008C0
:10006000EF010008EF010008EF010008EF010008B0
:10007000EF010008EF010008EF010008EF010008A0
:10008000EF010008EF010008EF010008EF01000890
:10009000EF010008EF010008EF010008EF01000880
:1000A000EF010008EF010008EF010008EF01000870
:1000B000EF010008EF010008EF010008EF01000860
:1000C000EF010008EF010008EF010008EF01000850
:1000D000EF010008E92F0008EF010008EF01000818
:1000E000EF010008EF010008EF010008EF01000830
:1000F000EF010008EF010008EF010008EF01000820
:10010000EF010008EF010008EF010008EF0100080F
:10011000EF010008EF010008EF010008EF010008FF
:10012000EF010008EF010008EF010008EF010008EF
:1001300000F002F800F03FF80AA090E8000C8244BA
:100140008344AAF10107DA4501D100F034F8AFF297
:10015000090EBAE80F0013F0010F18BFFB1A43F0A5
:1001600001031847DC130100FC130100103A24BFFF
:1001700078C878C1FAD8520724BF30C830C144BF0C
:1001800004680C607047000000230024002500264E
:10019000103A28BF78C1FBD8520728BF30C148BFEA
:1001A0000B607047642900F08980002070471FB5FC
:1001B0001FBD10B510BD00F049F91146FFF7F7FF5C
:1001C00003F016F800F067F903B4FFF7F2FF03BC81
:1001D00002F086FF0948804709480047FEE7FEE72E
:1001E000FEE7FEE7FEE7FEE7FEE7FEE7FEE7FEE7E7
:1001F00004480549054A064B704700008D2C00084D
:1002000031010008180A002018100020180C0020E6
:10021000180C00207047B2F120030AD5C2F1200368
:1002200020FA02F001FA03F321FA02F140EA030096
:10023000704721FA03F04FF0000170470FB40449F2
:1002400010B503AA029800F0D3F810BC5DF814FBB7
:10025000140000202DE9F0410E46044600202062E3
:100260002046E168884730B3252805D0D4E901212C
:100270009047206A401CF2E7E16820460027884743
:10028000050018D0A5F14100192802D820354FF4F7
:1002900000673246294620462760FFF783FF40B1BA
:1002A000012804D0F61D26F007060836D8E7361DCB
:1002B000D6E72846DAE7206ABDE8F0812DE9F0416B
:1002C0000646002410687529314616A510D0AFF3F4
:1002D0000080002802DA404213A507E031688A074F
:1002E00001D512A502E0490704D511A5012401E0BA
:1002F000AFF3008000210A2206F1240709E0B0FBD9
:10030000F2FCB0FBF2F302FB1C00303078541846CC
:10031000491C0028F3D123462A463046BDE8F04167
:1003200000F00CB8000000002D0000002B000000C1
:100330002000000070477047704770472DE9F04774
:100340000D4699469246044600F124080168880645
:1003500004D5E06921F01001216000E00120A842ED
:1003600001DD471B00E00027A1697A1902EB0900B3
:10037000081AA0612078C00602D42046AFF300809E
:10038000002608E0D4E901211AF806009047206A07
:10039000401C761C20624E45F4DB2078C0060AD54E
:1003A0002046AFF3008006E0D4E9012130209047D9
:1003B000206A401C2062381EA7F10107F4DC07E028
:1003C000D4E9012118F805009047206A401C2062FA
:1003D000281EA5F10105F3DC2046AFF3008020784C
:1003E000000602D50220BDE8F0870120FBE70000EF
:1003F000074B70B50D467B4400F011F804462846C3
:1004000000F020F810B14FF0FF3070BD204670BDF5
:100410005F2D000001694A1C02610878704700B531
:100420008FB0CDE901310021059105497944CDE92D
:10043000031011466846FFF70DFF0FB000BD000026
:10044000E5FFFFFF007B00F080007047754600F07D
:100450002BF8AE4605006946534620F00700854656
:1004600018B020B5FFF7C4FEBDE820404FF00006ED
:100470004FF000074FF000084FF0000B21F007018C
:10048000AC46ACE8C009ACE8C009ACE8C009ACE8CF
:10049000C0098D46704710B50446AFF30080204672
:1004A000BDE81040FFF790BE00487047B809002033
:1004B00000BFFEE7704700000021074AD1610749ED
:1004C000096941F00201054A116111464861096953
:1004D00041F040011161704790000020002002406F
:1004E0000022054BDA61054A126942F00102034B12
:1004F0001A61018070470000900000200020024037
:1005000000201E49C96801F0100139B11C49C969B0
:1005100041F002011A4AD16140F010001749C96840
:1005200001F0040139B11649C96941F00101144AC9
:10053000D16140F004001149C96901F0010169B1BC
:100540000F49C96941F004010D4AD16100BF0B494F
:10055000C96921F00101094AD16100BF00BF40F221
:100560000111884206D10549C96921F00101034AF8
:10057000D16101E00149C86000BF7047002002401E
:100580009000002070B5044600F084FD054609E0A7
:10059000601C38B124B100F07DFD401BA04201D9A0
:1005A000032070BD1248C06800F001000028EFD1A0
:1005B0000F48C06800F0200020B100BF20200C4987
:1005C000C86000BF0A48C06800F0100048B9084879
:1005D000C06900F0010020B90548C06800F00400BF
:1005E00018B1FFF78DFF0120DBE70020D9E70000FD
:1005F00000200240044901610449416004498160CE
:100600000449C160704700009106000869070008AE
:10061000990800080907000804490161044941607C
:10062000044981600449C16070470000B9060008B0
:10063000B5070008B90800081F0700080449016150
:1006400004494160044981600449C1607047000069
:10065000E106000801080008D9080008350700086D
:1006600070B504460D4604EB4400074901EB8000D9
:10067000007A40B105494D7004EB4401024A02EB97
:1006800081014868804770BD200000201C000020C8
:1006900010B504460748807810B9002005498870D5
:1006A0000020207000F028F90021084600F0E2F850
:1006B00010BD00001C00002010B5044607488078DB
:1006C000012802D10020054988700020207000F028
:1006D00017F90021012000F0CDF810BD1C0000200A
:1006E00010B5044607488078022802D10020054949
:1006F00088700020207000F007F90021022000F02F
:10070000B9F810BD1C00002010B50446022020706E
:1007100000F0FEF80221002000F0ACF810BD10B58A
:1007200004460220207000F0F7F80221012000F0BA
:10073000A1F810BD10B504460220207000F0F0F8BA
:100740000221084600F096F810BD00000349016040
:100750000349416003498160704700008D0800082B
:100760004D0800086106000810B504462078C0B1A5
:100770000E484078642190FBF1F201FB120006283C
:100780000FDA2078012803D008484078642808DD73
:1007900000F054F905494978054A02EBC10148685F
:1007A000804700200149487010BD00001C00002057
:1007B000B014010810B504462078C0B10E48407846
:1007C000642190FBF1F201FB120006280FDA207879
:1007D000012803D008484078642808DD00F03EF97D
:1007E00005494978054A02EBC10148688047002065
:1007F0000149487010BD00001C000020E0140108F1
:1008000010B504462078C0B10E484078642190FBB2
:10081000F1F201FB120006280FDA2078012803D03C
:1008200008484078642808DD00F028F9054949782F
:10083000054A02EBC1014868804700200149487021
:1008400010BD00001C0000201015010810B507485D
:100850004078002808DD0549897801EB4101044A08
:1008600002EB81014868804710BD00001C00002099
:1008700020000020032805DA00EB4002024B03EBC6
:1008800082021172704700002000002008B1014A66
:10089000507070471C00002010B504460020054928
:1008A00088700120207000F03FF801210020FFF740
:1008B000E1FF10BD1C00002010B5044601200549D1
:1008C0008870207000F050F801210846FFF7D2FF31
:1008D00010BD00001C00002010B504460220054990
:1008E00088700120207000F06BF801210220FFF7D2
:1008F000C1FF10BD1C00002010B501F04BFB10BD66
:1009000010B501F047FB10BD10B501F043FB10BD61
:1009100010B501F03FFB10BD10B501F03BFB10BD61
:1009200010B501F037FB10BD1FB50BA00068039098
:100930000020282148F67F620346CDE9002102907D
:1009400006A20146502001F057FD012203A90548E7
:1009500002F0D2F81FBD000001010000B5B5CEBB0A
:1009600000000000000007081FB50FA000680390FA
:100970000020282148F67F620346CDE9002102903D
:100980000AA20146502001F037FD48F67F601F2380
:1009900008A26C2100908C2001F084FF012203A9A1
:1009A000064802F0A9F81FBD02010000BDC7B6C885
:1009B000000000004E2E6D202020000000000708DF
:1009C0001FB518A0006803900020282148F67F6218
:1009D0000346CDE90021029013A20146502001F008
:1009E0000BFD0020302148F67F621F23CDE9002156
:1009F00002900FA29021962001F071FF002030217B
:100A000048F67F621F23CDE90021029009A29021C0
:100A10003C2001F064FF012203A9074802F06CF8B2
:100A20001FBD000004010000C4BFB1EA00000000C7
:100A300049490000490000000000070806484078C6
:100A4000642808DD04484078642190FBF1F201FB42
:100A500012000149487070471C0000200648407889
:100A6000642808DD04484078642190FBF1F201FB22
:100A700012000149487070471C0000200648407869
:100A8000642808DD04484078642190FBF1F201FB02
:100A900012000149487070471C00002070B50446E0
:100AA000002594F82100022803D00420A06301252A
:100AB000C1E02068006820F00E002168086020680E
:100AC000006820F00100216808605C4920688842C5
:100AD00052D95A4978392068884201D1012047E02B
:100AE000564964392068884201D1102040E05349BA
:100AF00050392068884201D1801539E04F493C398E
:100B00002068884201D1801432E04C49283920689D
:100B1000884202D14FF480302AE0484914392068D5
:100B2000884202D14FF4801022E044492068884274
:100B300001D140041CE042492068884201D10120D3
:100B400016E03F4914312068884201D110200FE09F
:100B50003B4928312068884201D1801508E0384996
:100B60003C312068884201D1801401E04FF480308C
:100B70003349091F086051E03049783920688842BC
:100B800001D1012047E02D4964392068884201D114
:100B9000102040E0294950392068884201D1801551
:100BA00039E026493C392068884201D1801432E07E
:100BB000224928392068884202D14FF480302AE047
:100BC0001E4914392068884202D14FF4801022E077
:100BD0001A492068884201D140041CE01849206865
:100BE000884201D1012016E015491431206888425D
:100BF00001D110200FE0124928312068884201D12C
:100C0000801508E00E493C312068884201D18014EB
:100C100001E04FF48030094980394860012084F8B0
:100C2000210000BF002084F8200000BF606B10B1DD
:100C30002046616B8847284670BD00008000024056
:100C4000080402400348006940F08000014908613F
:100C500000207047002002402DE9FE4F05468B46DC
:100C600017469846012600240020029000BF244821
:100C7000007E012802D10220BDE8FE8F012020491C
:100C8000087600BF4CF25030FFF77CFC064686BB6E
:100C9000012D02D10120029006E0022D02D1022096
:100CA000029001E00420029000241EE02201B946D7
:100CB000C24648465146FFF7AEFA80B20190022084
:100CC00000FB04B000900199FFF70AFC4CF2503091
:100CD000FFF758FC06460B48006920F0010009495F
:100CE000086106B104E0601CC4B202988442DDDBF6
:100CF00000BF00BF00200249087600BF3046BBE7B6
:100D0000900000200020024000200849096901F0FD
:100D1000800151B10649054A5160064951601146AA
:100D2000096901F0800101B10120704700200240F3
:100D300023016745AB89EFCD2DE9F8470246002333
:100D40009C467BE14FF0010808FA03F4D1F80080DB
:100D500008EA0400A0427DD1DFF8F4A2D1F80480B3
:100D6000A8EB0A09D0453AD014DCB8F1030F50D0F3
:100D700009DCB8F1000F31D0B8F1010F1CD0B8F187
:100D8000020F49D120E0B8F1110F18D0B8F1120FBD
:100D900042D11EE0B9F5881F25D006DCB9F5803FA9
:100DA00020D0B9F5801F37D11AE0B9F5001F18D04F
:100DB000B9F5041F30D117E0D1F80CC02DE0D1F8FF
:100DC0000C8008F1040C28E0D1F80C8008F1080C24
:100DD00023E0D1F80C8008F10C0C1EE000BF00BF2E
:100DE00000BF00BF00BF00BFD1F80880B8F1000FFE
:100DF00002D14FF0040C0BE0D1F80880B8F1010FDC
:100E000003D14FF0080C146102E04FF0080C54615C
:100E100003E04FF0000C00E000BF00BFFF2801D846
:100E2000904601E002F104084646FF2802D84FEA46
:100E3000830803E0A3F108084FEA88084746D6F87C
:100E400000804FF00F0909FA07F928EA09080CFA9F
:100E500007F900E07AE048EA0908C6F80080D1F80E
:100E6000048008F08058B8F1805F6FD100BFDFF8D0
:100E7000E481D8F8188048F00108DFF8D891C9F863
:100E80001880C846D8F8188008F00108CDF800800E
:100E900000BF00BF4FEAB9384FEA930958F829500C
:100EA0004FEA83784FEA18794FF00F0808FA09F8EB
:100EB00025EA0805DFF8A081424502D14FF000087D
:100EC00024E0DFF89881424502D14FF001081DE08F
:100ED000DFF88C81424502D14FF0020816E0DFF8BE
:100EE0008481424502D14FF003080FE0DFF878819A
:100EF000424502D14FF0040808E0DFF87081424516
:100F000002D14FF0050801E04FF006084FEA83795F
:100F10004FEA197908FA09F848EA0505DFF850811F
:100F20004FEA930948F82950D1F8048008F4803832
:100F3000B8F5803F0BD1DFF83C81D8F8008048EA53
:100F40000008DFF83091C9F800800AE075E0DFF8AA
:100F50002481D8F8008028EA0008DFF81891C9F841
:100F60000080D1F8048008F40038B8F5003F0ED1B5
:100F7000DFF8008108F10408D8F8008048EA00088A
:100F8000DFF8F09009F10409C9F800800DE0DFF8FE
:100F9000E48008F10408D8F8008028EA0008DFF8A7
:100FA000D49009F10409C9F80080D1F8048008F44C
:100FB0008018B8F5801F0ED1DFF8B88008F1080856
:100FC000D8F8008048EA0008DFF8A89009F108097D
:100FD000C9F800800DE0DFF89C8008F10808D8F817
:100FE000008028EA0008DFF88C9009F10809C9F8A8
:100FF0000080D1F8048008F40018B8F5001F0ED165
:10100000DFF8708008F10C08D8F8008048EA000882
:10101000DFF8609009F10C09C9F800800DE0DFF8F5
:10102000548008F10C08D8F8008028EA0008DFF89E
:10103000449009F10C09C9F800805B1CD1F80080CC
:1010400028FA03F8B8F1000F7FF47CAEBDE8F8870A
:10105000000011100010024000080140000C014087
:10106000001001400014014000180140001C014024
:101070000800014000040140024693680B400BB198
:10108000012000E0002070470AB1016101E00B047B
:1010900003617047014800687047000004000020A9
:1010A000034800680349097808440149086070470B
:1010B000040000200C00002010B50848006840F033
:1010C000100006490860052000F080F80F2000F0AD
:1010D00007F800F02BF8002010BD000000200240AF
:1010E00070B504460E4800784FF47A71B1FBF0F009
:1010F0000C490968B1FBF0F5284600F046FC08B140
:10110000012070BD102C07D200222146501E00F095
:101110001EF80548046001E00120F2E70020F0E736
:101120000C0000200000002008000020704701464D
:101130000846002809DB00F01F0301229A404309FA
:101140009B0003F1E023C3F8002100BF70472DE9A5
:10115000F05F80460D461646002701F0A5FF0746C2
:1011600039462A46334601F00700C0F1070ABAF1B2
:10117000040F02D94FF0040A01E0C0F1070AD1467A
:1011800000F1040ABAF1070F02D24FF0000A01E0A1
:10119000A0F1030AD4464FF0010A0AFA09FAAAF1AB
:1011A000010A0AEA020A0AFA0CFA4FF0010B0BFADA
:1011B0000CFBABF1010B0BEA030B4AEA0B042146D3
:1011C000404601F079FFBDE8F09F000000BF00F04D
:1011D0000702064B19684FF6FF031940044B0B43F7
:1011E00043EA0221014B196000BF70470CED00E09B
:1011F0000000FA0570B504460D460CB9012070BD1B
:101200005A48006800F00700A8420ED2574800680C
:1012100020F007002843554908600846006800F0A0
:101220000700A84201D00120E9E7207800F0020081
:1012300002281DD1207800F00400042805D14C4874
:10124000406840F4E0604A494860207800F00800B7
:10125000082805D14648406840F460504449486039
:101260004348406820F0F000A168084340494860C6
:10127000207800F0010078B36068012806D13C486E
:10128000006800F4003090B90120B8E760680228D7
:1012900006D13748006800F0007040B90120AEE781
:1012A0003348006800F0020008B90120A7E7304881
:1012B000406820F00300616808432D494860FFF74B
:1012C000E9FE064609E0FFF7E5FE801B41F28831A2
:1012D000884202D9032092E707E02548406800F0E1
:1012E0000C006168B0EB810FEDD12048006800F080
:1012F0000700A8420ED91D48006820F007002843C7
:101300001A4908600846006800F00700A84201D0AA
:10131000012074E7207800F00400042807D1144865
:10132000406820F4E060E168084311494860207893
:1013300000F00800082808D10D48406820F46050EB
:10134000216940EAC1000A49486000F03FF80849B5
:101350004968C1F30311074A515CC8400649086057
:1013600006480068FFF7BCFE002048E70020024066
:1013700000100240F03200080000002008000020A9
:1013800001480068704700000000002000B5FFF72A
:10139000F7FF04494968C1F30221034A515CC84080
:1013A00000BD0000001002400033000800B5FFF748
:1013B000E7FF04494968C1F3C221034A515CC840B0
:1013C00000BD00000010024000330008F0B585B0F9
:1013D0000FF26C0C9CE8E01001A8A0E8E0101CA53E
:1013E0002D68009500210022002300240020194DC3
:1013F000696801F00C05F5B1042D02D0082D19D152
:1014000001E0154819E001ADC1F38346AC5D01F47C
:10141000803555B10F4D6D68C5F340451DF8052069
:101420000D4D6543B5FBF2F302E00C4D04FB05F3F3
:10143000184602E000BF084800BF00BF05B0F0BD7D
:1014400002030405060708090A0B0C0D0E0F101005
:10145000010200000010024000127A0000093D0065
:10146000F8B504460CB90120F8BD207800F0010061
:10147000002878D0F848406800F00C0004280CD010
:10148000F548406800F00C00082811D1F248406887
:1014900000F48030B0F5803F0AD1EF48006800F4D6
:1014A000003000285FD0606800285CD10120DBE7B5
:1014B00000BF6068B0F5803F06D1E748006840F49F
:1014C0008030E549086028E0606858B9E248006863
:1014D00020F48030E04908600846006820F480204D
:1014E00008601AE06068B0F5A02F0BD1DA480068F8
:1014F00040F48020D84908600846006840F48030F5
:1015000008600AE0D448006820F48030D2490860BE
:101510000846006820F48020086000BF606888B139
:10152000FFF7B8FD054606E0FFF7B4FD401B642851
:1015300001D9032098E7C848006800F4003000286B
:10154000F2D010E0FFF7A6FD054606E0FFF7A2FD8A
:10155000401B642801D9032086E7BF48006800F4D7
:1015600000300028F2D1207800F00200022857D184
:10157000B948406800F00C0050B1B748406800F02E
:101580000C00082818D1B448406800F4803098B99D
:10159000B148006800F0020020B12069012801D0A4
:1015A000012061E7AC48006820F0F800616940EA7A
:1015B000C100A949086033E02069E8B10120A749CA
:1015C0000860FFF767FD054606E0FFF763FD401B77
:1015D000022801D9032047E79F48006800F0020075
:1015E0000028F2D09C48006820F0F800616940EAC9
:1015F000C1009949086013E0002098490860FFF78E
:1016000049FD054606E0FFF745FD401B022801D9CC
:10161000032029E79048006800F002000028F2D17A
:10162000207800F0080008282DD1A069B8B1012069
:101630008B490860FFF72EFD054606E0FFF72AFDFF
:10164000401B022801D903200EE78348406A00F0BE
:1016500002000028F2D0012001F0D2F913E00020AE
:101660007F490860FFF716FD054606E0FFF712FD0B
:10167000401B022801D90320F6E67748406A00F0B3
:1016800002000028F2D1207800F00400042873D171
:1016900000277148C06900F0805070B900BF6E48E3
:1016A000C06940F080506C49C8610846C06900F0CC
:1016B0008050009000BF00BF01276A48006800F416
:1016C0008070B0B96748006840F480706549086070
:1016D000FFF7E0FC054606E0FFF7DCFC401B642852
:1016E00001D90320C0E65F48006800F4807000283C
:1016F000F2D000BFE068012806D15748006A40F0E8
:1017000001005549086227E0E06858B95248006A6C
:1017100020F00100504908620846006A20F00400E9
:10172000086219E0E06805280BD14B48006A40F0D8
:101730000400494908620846006A40F00100086256
:101740000AE04548006A20F0010043490862084663
:10175000006A20F00400086200BFE068A0B1FFF753
:1017600099FC054609E0FFF795FC401B41F28831E2
:10177000884202D9032077E622E03748006A00F069
:1017800002000028EFD012E0FFF784FC054608E0D5
:10179000FFF780FC401B41F28831884201D90320C9
:1017A00062E62D48006A00F002000028F0D1012F07
:1017B00005D12948C06920F080502749C86100BF81
:1017C000E069C8B32448406800F00C00082860D0E5
:1017D000E069022848D1002020490866FFF75AFC3A
:1017E000054606E0FFF756FC401B022801D90320FE
:1017F0003AE61948006800F000700028F2D1206A2B
:10180000B0F5803F07D11448406820F40030A1684B
:10181000084311494860D4E9080108430E49496862
:1018200021F4741108430C49486001200B490866F3
:10183000FFF730FC054607E03DE0FFF72BFC401BBF
:10184000022801D903200FE60348006800F0007069
:101850000028F2D02FE000000010024000004242B9
:101860008004424200700040002014490866FFF7DF
:1018700011FC054606E0FFF70DFC401B022801D9CC
:101880000320F1E50E48006800F000700028F2D156
:1018900011E0E069012800D1E6E50948466806F450
:1018A0008031206A814204D106F47011606A81425D
:1018B00001D00120D8E50020D6E50000000042421A
:1018C0000010024010B504460CB9012010BD606A3A
:1018D00000B900BFA06AB0F5005F00D100BF94F866
:1018E000510028B9002084F85000204600F038F854
:1018F000022084F851002068006820F04000216830
:101900000860D4E901010843E168084321690843FC
:1019100061690843218B01F400710843E1690843C0
:10192000216A0843A16A0843216808600421A0696C
:1019300001EA104021684860A06AB0F5005F02D15A
:101940002168E06A08612068C06920F400602168AD
:10195000C86100206065012084F851000020B5E7CF
:101960007047042808D14FF0E021096941F00401D3
:101970004FF0E022116107E04FF0E021096921F00A
:1019800004014FF0E0221161704770B5044625460E
:10199000681EB0F1807F01D301200FE0681E4FF078
:1019A000E02148610F214FF0FF3001F085FB00205E
:1019B0004FF0E021886107200861002070BD70476A
:1019C0002DE9F0470446206805682068C66820684D
:1019D00047694FF00008C14605F00F08B8F1000F45
:1019E0000AD105F0200038B106F0200020B12046D1
:1019F00001F0A2F9BDE8F087B8F1000F6DD007F053
:101A0000010018B906F49070002866D005F00100B6
:101A100030B106F4807018B1E06B40F00100E06373
:101A200005F0040030B107F0010018B1E06B40F0A0
:101A30000200E06305F0020030B107F0010018B1C8
:101A4000E06B40F00400E06305F0080030B107F0FF
:101A5000010018B1E06B40F00800E063E06B68B390
:101A600005F0200028B106F0200010B1204601F05A
:101A700063F920684069C0F38019E06B00F008004A
:101A800010B9B9F1000F22D0204601F035F92068D5
:101A9000406900F04000B0B12068406920F040008B
:101AA00021684861606B50B11748616B4863606B97
:101AB000FEF7F4FF10B1606B416B88470CE02046E5
:101AC000FFF77DFF08E02046FFF779FF04E020469E
:101AD000FFF775FF0020E0638CE705F0800030B170
:101AE00006F0800018B1204601F04AFA82E705F0BE
:101AF000400030B106F0400018B1204601F00CF96A
:101B000078E700BF76E70000E52C000810B5044632
:101B10000CB9012010BDA06900B100E000BF94F82D
:101B2000390028B9002084F83800204600F028F851
:101B3000242084F839002068C06820F4005021680F
:101B4000C860204601F04CF92068006920F49040FC
:101B5000216808612068406920F02A0021684861F6
:101B60002068C06840F400502168C8600020E0632D
:101B7000202084F8390084F83A000020CAE70000E9
:101B800010B586B0044625492068884244D100BF7C
:101B90002348806940F00400214988610846806933
:101BA00000F00400019000BF00BF00BF084680693C
:101BB00040F4804088610846806900F480400190CC
:101BC00000BF00BF00BF0846806940F00100886187
:101BD0000846806900F00100019000BF00BF481571
:101BE000029002200390012004900320059002A996
:101BF0000C48FFF7A1F84FF480600290002003909A
:101C000002A90848FFF798F82520FFF790FA032269
:101C100011462520FFF79BFA06B010BD00380140A1
:101C2000001002400008014010B5034693F83A0046
:101C300020282FD101B10AB9012010BD00BF93F8AF
:101C40003800012801D10220F7E7012083F838008D
:101C500000BF99629A85DA850020D863222083F834
:101C60003A0000BF002083F8380000BF1868C06841
:101C700040F480701C68E0601868406940F0010022
:101C80001C6860611868C06840F020001C68E06053
:101C90000020D2E70220D0E71D4A0168914236D1E8
:101CA0001C49098801F4004189BB1A49098801F4DB
:101CB000804171B1184909780A2903D00021154AD9
:101CC000118024E01349098841F40041114A118030
:101CD0001DE0114909780D2906D10E49098841F402
:101CE00080410C4A118012E00B490978094A128898
:101CF000C2F30D02094B995406490988491C054A4B
:101D0000118011460988C72901DD00211180704723
:101D100000380140180000201A000020B000002008
:101D2000704700BFFEE7000000B585B000BF234844
:101D3000806940F00400214988610846806900F00C
:101D40000400009000BF00BF00BF0846806940F05B
:101D5000080088610846806900F00800009000BF14
:101D600000BF00BF0846806940F010008861084647
:101D7000806900F01000009000BF00BF00BF08465F
:101D8000806940F0200088610846806900F02000EA
:101D9000009000BF00BF4FF48040019000200290EF
:101DA00001A90748FEF7C8FF062001900020029015
:101DB00001A90448FEF7C0FF05B000BD00100240B5
:101DC000000C01400008014010B502A0FEF736FAF1
:101DD00010BD0000322D3232320D0A0010B505A0C0
:101DE000FEF72CFA0548016988470548816888474D
:101DF00010BD0000322D3232320D0A006800002082
:101E00007C00002010B502A0FEF718FA10BD0000FB
:101E1000322D3232320D0A0010B502A0FEF70EFA52
:101E200010BD0000322D3434340D0A0010B505A069
:101E3000FEF704FA05480169884705488168884724
:101E400010BD0000322D3434340D0A00680000202B
:101E50007C00002010B505A0FEF7F0F905480169E7
:101E6000884705488168884710BD0000322D34340A
:101E7000340D0A007C0000205400002010B502A0A0
:101E8000FEF7DCF910BD0000322D3333330D0A00AC
:101E900010B505A0FEF7D2F9054801698847054845
:101EA0008168884710BD0000322D3333330D0A009E
:101EB000680000207C00002010B502A0FEF7BEF9EB
:101EC00010BD0000322D3333330D0A0010B502A0CF
:101ED000FEF7B4F910BD0000322D3131310D0A008A
:101EE00010B505A0FEF7AAF905480169884705481D
:101EF0008168884710BD0000322D3131310D0A0054
:101F0000680000207C00002010B502A0FEF796F9C2
:101F100010BD0000322D3131310D0A0010B505A081
:101F2000FEF78CF9054801698847054881688847AC
:101F300010BD0000322D3535350D0A00540000204B
:101F40006800002010B505A0FEF778F90548016982
:101F5000884705488168884710BD0000322D353517
:101F6000350D0A00680000207C00002010B505A097
:101F7000FEF764F905480169884705488168884784
:101F800010BD0000322D3535350D0A007C000020D3
:101F90005400002008B548F67F60F0231A4600215F
:101FA0000090084600F02CF808BD2DE9F0410746E6
:101FB0000C4615461E462A2000F0C2FC384600F0AA
:101FC000AFFC284600F0ACFC2B2000F0B9FC20460A
:101FD00000F0A6FC304600F0A3FC2C2000F0B0FC82
:101FE000BDE8F08170B504460D4616462B462246E4
:101FF00029462046FFF7D9FF304600F091FC70BD1E
:102000002DE9F04706460F4614461D46DDF820A090
:10201000681E83B2601E82B239463046FFF7C5FFA4
:10202000B8460EE0B14606E0504600F079FC09F1F2
:1020300001001FFA80F9A145F6DB08F101001FFA43
:1020400080F8A845EEDBBDE8F087000000B585B05C
:1020500000BF2348806940F0080021498861084694
:10206000806900F00800009000BF00BF00BF084674
:10207000806940F0040088610846806900F004002F
:10208000009000BF00BF00BF0846806940F010000C
:1020900088610846806900F01000009000BF00BF12
:1020A0004FF4E0700190012002900320049001A9F8
:1020B0000C48FEF741FE01224FF4E0710A48FEF79A
:1020C000E3FF4FF43040019001A90748FEF734FECA
:1020D000012211030448FEF7D7FF05B000BD000040
:1020E0000010024000100140000C014008B500F053
:1020F0009BFCFFF7ABFF002240216848FEF7C4FFBE
:10210000642000F0F9FF012240216448FEF7BCFF83
:10211000642000F0F1FF012211026048FEF7B4FFD5
:10212000642000F0E9FF112000F00AFC782000F0A4
:10213000E3FF362000F004FC002000F0FAFB3A2018
:1021400000F0FEFB052000F0F4FBB22000F0F8FBED
:102150000C2000F0EEFB0C2000F0EBFB002000F068
:10216000E8FB332000F0E5FB332000F0E2FBB72072
:1021700000F0E6FB352000F0DCFBBB2000F0E0FBCC
:10218000322000F0D6FBC22000F0DAFB012000F084
:10219000D0FBC32000F0D4FB152000F0CAFBC42004
:1021A00000F0CEFB202000F0C4FBC62000F0C8FBEE
:1021B0000F2000F0BEFBD02000F0C2FBA42000F0F6
:1021C000B8FBA12000F0B5FBE02000F0B9FBD02067
:1021D00000F0AFFB082000F0ACFB0E2000F0A9FBE4
:1021E000092000F0A6FB092000F0A3FB052000F069
:1021F000A0FB312000F09DFB332000F09AFB48202B
:1022000000F097FB172000F094FB142000F091FBE6
:10221000152000F08EFB312000F08BFB342000F005
:1022200088FBE12000F08CFBD02000F082FB08202E
:1022300000F07FFB0E2000F07CFB092000F079FB12
:10224000092000F076FB152000F073FB312000F030
:1022500070FB332000F06DFB482000F06AFB172074
:1022600000F067FB142000F064FB152000F061FB18
:10227000312000F05EFB342000F05BFB212000F0F9
:102280005FFB292000F05CFB48F67F60F0231A46D4
:10229000002100900846FFF7B3FE08BD0010014082
:1022A0002DE9FF5F80468A4617469B460F9D00201A
:1022B0000290CDF80080284605EBD071C1F34704A9
:1022C0002046E21704EB5272D2102146E31704EBCA
:1022D0005373DB10A4EBC3030BB1012300E0002315
:1022E0001A446A4392B20192A7F12000C7B20AEBE6
:1022F0000500401E83B208EB0400401E82B2514626
:102300004046FFF752FE002669E0102D05D1364801
:1023100000EB0710805D03901DE0202D05D13348B0
:1023200000EB8710805D039015E0282D07D1C7EBE7
:1023300007102F4901EBC000805D03900BE0302DAA
:1023400007D107EBC7002B4901EB0010805D03901C
:1023500001E0BDE8FF9F4FF000093AE01098C8B9CE
:10236000012000FA09F00399084018B1584600F01E
:10237000D7FA02E00E9800F0D3FA0298401CC0B2DF
:102380000290029890FBF4F104FB1100E8B90020E0
:10239000029021E0012000FA09F00399084020B1E1
:1023A0005A4651464046FFF71DFE08F101001FFA4C
:1023B00080F80098A8EB0000A04206D1DDF800806C
:1023C0000AF101001FFA80FA06E009F1010000F0AD
:1023D000FF09B9F1080FC1DB00BF701C86B201987C
:1023E000864292DB00BFB4E708330008F8380008E3
:1023F000B8500008407D00082DE9FE4F8046894610
:1024000017469A46DDE90D460C9D36E0102C09D1A1
:1024100053463A4649464046CDE90146009500F00C
:1024200031F825E0182C09D153463A464946404632
:10243000CDE90146009500F0A7F819E0202C09D15C
:1024400053463A4649464046CDE90146009500F0DC
:1024500025F90DE0282C09D153463A464946404615
:10246000CDE90146009500F09BF901E0BDE8FE8F43
:10247000BF1C08EB04001FFA80F838780028C5D18B
:1024800000BFF3E72DE9FE4F0646894692469B467C
:102490000D9C00962046E11704EB5171C910614371
:1024A00089B2019105200290002565E005EB051039
:1024B000344911F810009AF80010884259D105EB00
:1024C0000510304901EB400040789AF8011088422D
:1024D0004FD109EB0400401E83B23019401E82B276
:1024E00049463046FFF761FD00273FE04FF0000806
:1024F00036E00E9898B905EB0510224901EB400033
:10250000801CC05D012101FA08F1084018B158464D
:1025100000F006FA20E00C9800F002FA1CE005EB4F
:102520000510184901EB4000801CC05D012101FA33
:1025300008F1084020B15A4649463046FFF752FD9F
:10254000701C86B20098301AA04205D1009E09F195
:1025500001001FFA80F906E008F1010000F0FF0811
:10256000B8F1080FC5DB00BF781CC7B201988742DD
:10257000BCDB00BF681C85B20298854296DBBDE8D3
:10258000FE8F0000F0F900082DE9FE4F064689464F
:1025900092469B460D9C00962046E11704EB517134
:1025A000C910614389B201910520029000256DE0B8
:1025B00005EB850000EB4510374911F810009AF83B
:1025C000001088425FD105EB850000EB45103249D1
:1025D00001EB400040789AF80110884253D109EB92
:1025E0000400401E83B23019401E82B24946304674
:1025F000FFF7DBFC002743E04FF000083AE00E98BD
:10260000A8B905EB850000EB4510234901EB40001C
:10261000801CC05D012101FA08F1084018B158463C
:1026200000F07EF922E00C9800F07AF91EE005EB4C
:10263000850000EB4510184901EB4000801CC05D8F
:10264000012101FA08F1084020B15A4649463046B6
:10265000FFF7C8FC701C86B20098301AA04205D162
:10266000009E09F101001FFA80F906E008F101005F
:1026700000F0FF08B8F1080FC1DB00BF781CC7B23B
:1026800001988742B8DB00BF681C85B2029885427A
:102690008EDBBDE8FE8F00009AFA00082DE9FE4FA0
:1026A0000646894692469B460D9C00962046E117B9
:1026B00004EB5171C910614389B20191132002905A
:1026C000002565E005EB8510344911F810009AF8F3
:1026D0000010884259D105EB8510304901EB4000CC
:1026E00040789AF8011088424FD109EB0400401E4F
:1026F00083B23019401E82B249463046FFF755FC7E
:1027000000273FE04FF0000836E00E9898B905EB3F
:102710008510224901EB4000801CC05D012101FAB7
:1027200008F1084018B1584600F0FAF820E00C987B
:1027300000F0F6F81CE005EB8510184901EB4000AD
:10274000801CC05D012101FA08F1084020B15A4601
:1027500049463046FFF746FC701C86B20098301A96
:10276000A04205D1009E09F101001FFA80F906E0A0
:1027700008F1010000F0FF08B8F1080FC5DB00BF49
:10278000781CC7B201988742BCDB00BF681C85B2C9
:102790000298854296DBBDE8FE8F00000CFC000825
:1027A0002DE9FE4F0646894692469B460D9C0096B3
:1027B0002046E11704EB5171C910614389B20191C0
:1027C00013200290002565E065206843344911F824
:1027D00010009AF80010884259D1652068433049AA
:1027E00001EB400040789AF8011088424FD109EB84
:1027F0000400401E83B23019401E82B24946304662
:10280000FFF7D3FB00273FE04FF0000836E00E98BB
:1028100098B965206843224901EB4000801CC05DE7
:10282000012101FA08F1084018B1584600F078F883
:1028300020E00C9800F074F81CE06520684318490B
:1028400001EB4000801CC05D012101FA08F1084045
:1028500020B15A4649463046FFF7C4FB701C86B289
:102860000098301AA04205D1009E09F101001FFA1C
:1028700080F906E008F1010000F0FF08B8F1080F48
:10288000C5DB00BF781CC7B201988742BCDB00BF24
:10289000681C85B20298854296DBBDE8FE8F000079
:1028A000B20501082DE9FE4305460E4614461F46B3
:1028B000DDF828800EE000202021CDE90081029083
:1028C00022783B4631462846FFF7EAFC05F1100026
:1028D00085B2641C20780028EDD1BDE8FE832DE987
:1028E000FE4F06460F4614469846DDE90D5ADDF8C0
:1028F000309010E0CDE9015ACDF80090227843469F
:1029000039463046FFF7CCFC284605EBD07106EB84
:1029100061018EB2641C20780028EBD1BDE8FE8FE7
:1029200010B50446201200F01DF8E0B200F01AF8CD
:1029300010BD10B50446204600F014F810BD00008C
:1029400010B50446002280210548FEF79DFB204675
:1029500000F008F8012280210148FEF795FB10BD28
:102960000010014070B5044600224FF48051154814
:10297000FEF78AFB00251CE000224FF400511148AD
:10298000FEF782FB04F0800028B10122D1030D483C
:10299000FEF77AFB05E000224FF400410948FEF7FC
:1029A00073FB012251030748FEF76EFB6006040E1D
:1029B0006D1C082DE0DB012211030248FEF764FBC9
:1029C00070BD0000000C014000BFFEE710B50248DA
:1029D0004168884710BD00005400002010B502482F
:1029E0004168884710BD00006800002010B502480B
:1029F0004168884710BD00007C0000207047704788
:102A000008B508490968C9084FF47A72B1FBF2F1B8
:102A10004143009100BF00BF00994A1E0092002967
:102A2000F9D108BD0000002000B59BB000BF2548CB
:102A3000C06940F480402349C8610846C06900F479
:102A40008040009000BF00BF00BF0846806940F092
:102A5000080088610846806900F00800009000BF07
:102A600000BF4FF42040179003201A9002201890C6
:102A700017A91548FEF760F901224FF420411248CA
:102A8000FEF702FB11480190C11303914FF48270CD
:102A90000290002104910221059101210691490231
:102AA0000791082108910021099107210C9101A8A3
:102AB000FEF708FF0548006840F040000349086041
:102AC0001BB000BD00100240000C01400038004067
:102AD00030B503460C461546002207E0184600F0C4
:102AE00008F824F812009B1C501C82B2AA42F5DBA5
:102AF00030BD0146088870472DE9F05F80468A4660
:102B00001746B8F1006F02D33A48804501D3BDE8BB
:102B1000F09FFEF7F9F8A8F1006B4FEADB25CBF345
:102B20004909C9F58064A74200DC3C465CE04FF0EF
:102B3000006101EBC5204A142F49FFF7C9FF0026A9
:102B40000BE009EB06002C4931F810004FF6FF713D
:102B5000884200D003E0701C86B2A642F1DB00BFC1
:102B6000A64225DA4FF0006101EBC520FDF7A4FC79
:102B70004CF25030FDF706FD2048006920F00200BD
:102B80001E490861002608E03AF8160006EB090124
:102B9000194A22F81100701C86B2A642F4DB4FF0ED
:102BA000006101EBC5204A14134900F029F808E040
:102BB0004CF25030FDF7E6FC22465146404600F00C
:102BC0001FF8A74200D110E06D1C4FF000090AEB7E
:102BD000440A08EB4408381B87B2B7F5806F02DD62
:102BE0004FF4806400E03C46A1E700BFFEF72AF8FE
:102BF00000BF8CE700000808B80100200020024058
:102C00002DE9F04104460E46174600250AE036F845
:102C100015C06246002321460120FEF71DF8A41CC2
:102C2000681C85B2BD42F2DBBDE8F081704730B56B
:102C30008FB0054600240120059000040690002076
:102C4000079002200C90C1030D910E9505A8FEF788
:102C500007FC04460CB100BFFEE70F2000900220E5
:102C60000190002002904FF48060039000200490B7
:102C700002216846FEF7BEFA04460CB100BFFEE72B
:102C80000FB030BD10B5FEF70BFA10BD114800684B
:102C900040F001000F490860084640680E490840AE
:102CA0000C494860084600680C490840094908601A
:102CB0000846006820F4802008600846406820F438
:102CC000FE0048604FF41F008860C8030449086094
:102CD00070470000001002400000FFF8FFFFF6FE02
:102CE00008ED00E070B505466C6A0020E085E084E0
:102CF0002046FEF764FE70BD0168C96821F490713A
:102D00000268D1600168496921F0010102685161DE
:102D1000202180F83A10704710B504462068C0683A
:102D200020F040002168C860202084F83900204647
:102D3000FEF7F6FF002010BD70B5044694F83A0087
:102D400022284AD1A068B0F5805F13D1A56A206916
:102D500040B920684068C0F308002880A06A801C41
:102D6000A06219E020684068C0B22880A06A401CB8
:102D7000A06211E0206938B920684068C1B2A26A37
:102D8000501CA062117007E02068406800F07F01CD
:102D9000A26A501CA0621170E08D401E80B2E085D6
:102DA000C8B92068C06820F020002168C860206889
:102DB000C06820F480702168C8602068406920F0F5
:102DC000010021684861202084F83A002046FEF77F
:102DD00063FF002070BD0020FCE70220FAE700003E
:102DE00070B504462168096921F44051E268114335
:102DF000226811612269A1681143626941EA0205F2
:102E00002168C96841F20C62914329432268D1606C
:102E10002168496921F44071A26911432268516116
:102E2000564A2168914254D1FEF7C0FA00EBC00126
:102E300001EB001162689200B1FBF2F100EBC002FD
:102E400002EB001263689B00B2FBF3F26423B2FB57
:102E5000F3F202EBC20303EB0212A1EB8201322276
:102E600002EB01116422B1FBF2F101F0F00100EB81
:102E7000C00202EB001263689B00B2FBF3F2642312
:102E8000B2FBF3F201EB021200EBC00101EB001107
:102E900063689B00B1FBF3F100EBC00303EB00138D
:102EA0006668B600B3FBF6F36426B3FBF6F303EBF8
:102EB000C30606EB0313A1EB8301322303EB0111DD
:102EC0006423B1FBF3F101F00F011144226891601A
:102ED00053E0FEF75BFA00EBC00101EB0011626802
:102EE0009200B1FBF2F100EBC00202EB001263684A
:102EF0009B00B2FBF3F26423B2FBF3F202EBC203DA
:102F000003EB0212A1EB8201322202EB01116422D7
:102F1000B1FBF2F101F0F00100EBC00202EB001294
:102F200063689B00B2FBF3F26423B2FBF3F201EBA4
:102F3000021200EBC00101EB001163689B00B1FBC2
:102F4000F3F100EBC00303EB00136668B600B3FBBC
:102F5000F6F36426B3FBF6F303EBC30606EB0313A9
:102F6000A1EB8301322303EB01116423B1FBF3F1E5
:102F700001F00F0111442268916070BD00380140DA
:102F8000014691F8390021282CD18868B0F5805F7E
:102F90000FD10A6A1088C0F308000B6858600869EE
:102FA00018B9086A801C086209E0086A401C0862B7
:102FB00005E00B6A581C086218780B685860C88CCA
:102FC000401E80B2C88458B90868C06820F08000EC
:102FD0000B68D8600868C06840F040000B68D86093
:102FE000002070470220FCE710B526490968A1F1CE
:102FF0003000FDF74BFC2448417824A0FDF71EF972
:103000002548FEF7DDFC244800680068C0F3401046
:1030100008B31C480068C4B22048008800F400408F
:10302000C8B91E48008800F4804060B10A2C03D063
:1030300000201A49088020E01848008840F4004029
:103040001649088019E00D2C06D11448008840F478
:1030500080401249088010E010480088C0F30D003D
:103060000F490C540D480088401C0C490880084644
:103070000088C72801DD002008800748FEF7A0FC73
:1030800010BD0000043801401C00002075736172FF
:10309000742025640D0A000078010020180000202B
:1030A000B000002000BFFEE702480068C0F3022025
:1030B000704700000CED00E010B5002804DB0A07A3
:1030C000130E054A135406E00A07140E034A00F0D3
:1030D0000F031B1FD45410BD00E400E018ED00E006
:1030E00000BF704710B504460420FEF73AFC0148C3
:1030F000046010BD1000002030B50446002504E037
:103100004FF47A7000F004F86D1CA542F8D330BD7E
:1031100070B5034600224FF0E02675690D4E366803
:1031200003FB06F44FF0E026B16910E04FF0E02613
:10313000B06988420BD0884202D20E1A324402E0B3
:103140002E1A0E4432440146A24200D300E0EDE7BD
:1031500000BF70BD1000002000BF054A126802F0D9
:103160004002002AF9D0C2B2014B1B1D1A60704701
:103170000038014010B504461948008800280DDDCC
:1031800017480088B0F5FA7F08DA3CB915A0FDF7BA
:1031900055F8002012490880012010BD1048008811
:1031A000B0F5FA7F0DDD1048007850B90FA0FDF79B
:1031B00045F800200A49088001200B4908700520C5
:1031C000EBE7012C05D106480088401C0449088023
:1031D00004E0002004490870014908800020DCE771
:1031E00044000020310000004600002032000000B2
:1031F00008B5FDF761FF0920FFF774FF4FF4E010F9
:10320000FFF715FD4FF4E13000F056F8FEF76EFFC2
:10321000FEF78AFD2248FDF799FA2248FDF7EAF900
:103220002148FDF7F9F92148FDF708FA012269461E
:103230001F48FFF74DFC9DF8000000F0010018B199
:1032400018488168884716E09DF8000000F00200E9
:10325000022803D11448816888470CE09DF80000DB
:1032600000F00400042803D110488168884702E078
:103270000C488168884712E00520FFF73DFF4FF4B6
:1032800000510C48FDF7F8FE012121EA000528460F
:10329000FFF770FF0446FDF7F9FAFDF7D7FAEBE701
:1032A0004800002054000020680000207C0000201E
:1032B000000007080010014010B5044609480A49FB
:1032C00008600846446000218160C160016181613D
:1032D0000C214161FEF71AFC012204490248FEF765
:1032E000A3FC10BD00380140780100201A00002026
:1032F00000000000000000000102030406070809A6
:1033000000000000010203040000000000000000B3
:103310000000000000000000000000080808080885
:10332000080800001818000000486C241200000073
:1033300000000000000000000000002424247F1290
:1033400012127F12121200000000081C2A2A0A0C16
:103350001828282A2A1C08080000002225151515FF
:103360002A585454542200000000000C1212120A71
:1033700076252911916E0000000606040300000066
:1033800000000000000000000040201010080808A5
:10339000080808101020400000020408081010104F
:1033A00010101008080402000000000008086B1C40
:1033B0001C6B080800000000000000000808080856
:1033C0007F0808080800000000000000000000005E
:1033D00000000000060604030000000000000000DA
:1033E000FE000000000000000000000000000000DF
:1033F0000000000006060000000080404020201071
:10340000100808040402020000000018244242428E
:103410004242424224180000000000080E0808083A
:1034200008080808083E00000000003C4242422014
:1034300020100804427E00000000003C4242201898
:1034400020404042221C000000000020302824249C
:1034500022227E20207800000000007E0202021A54
:1034600026404042221C0000000000382402021ABC
:1034700026424242241800000000007E2222101042
:1034800008080808080800000000003C42424224E6
:1034900018244242423C00000000001824424242EC
:1034A00064584040241C0000000000000000181870
:1034B00000000000181800000000000000000008D4
:1034C000000000000008080400000040201008046C
:1034D00002040810204000000000000000007F00EF
:1034E00000007F000000000000000002040810201F
:1034F00040201008040200000000003C4242464008
:1035000020101000181800000000001C225A555509
:1035100055552D42221C0000000000080818141404
:10352000243C224242E700000000001F2222221E0B
:1035300022424242221F00000000007C4242010160
:1035400001010142221C00000000001F22424242F1
:1035500042424242221F00000000003F4212121E5F
:1035600012120242423F00000000003F4212121EAF
:1035700012120202020700000000003C2222010198
:1035800001712122221C0000000000E74242424259
:103590007E42424242E700000000003E0808080860
:1035A00008080808083E00000000007C10101010F9
:1035B000101010101010110F0000007722120A0EC8
:1035C0000A12122222770000000000070202020203
:1035D00002020202427F00000000007736363636D3
:1035E0002A2A2A2A2A6B0000000000E346464A4A9B
:1035F00052525262624700000000001C22414141C9
:1036000041414141221C00000000003F4242424231
:103610003E020202020700000000001C224141415C
:1036200041414D53321C60000000003F4242423E87
:103630001212222242C700000000007C4242020413
:1036400018204042423E00000000007F4908080860
:1036500008080808081C0000000000E74242424237
:1036600042424242423C0000000000E74242222423
:1036700024141418080800000000006B4949494947
:103680005555362222220000000000E7422424186B
:103690001818242442E700000000007722221414A6
:1036A00008080808081C00000000007E21201010F7
:1036B00008040442423F000000780808080808088F
:1036C0000808080808087800000002020404080836
:1036D0000810102020204040001E10101010101064
:1036E0001010101010101E000038440000000000E0
:1036F00000000000000000000000000000000000CA
:1037000000000000000000FF0006080000000000AC
:103710000000000000000000000000000000003C6D
:103720004278444242FC0000000000030202021AF8
:1037300026424242261A0000000000000000003825
:10374000440202024438000000000060404040781B
:103750004442424264D80000000000000000003CE7
:10376000427E0202423C0000000000F08808087E11
:1037700008080808083E0000000000000000007C67
:1037800022221C023C42423C000000030202023A98
:103790004642424242E700000000000C0C00000ECE
:1037A00008080808083E000000000030300000381B
:1037B000202020202020221E00000003020202728E
:1037C000120A1612227700000000000E08080808EE
:1037D00008080808083E0000000000000000007F04
:1037E0009292929292B70000000000000000003B0D
:1037F0004642424242E70000000000000000003C58
:1038000042424242423C0000000000000000001B17
:1038100026424242221E02070000000000000078FB
:1038200044424242447840E000000000000000773B
:103830004C040404041F0000000000000000007C91
:1038400042023C40423E0000000000000008083EEA
:1038500008080808083000000000000000000063AD
:103860004242424262DC000000000000000000E72B
:10387000422424140808000000000000000000EBAF
:103880004949555522220000000000000000007642
:1038900024181818246E000000000000000000E743
:1038A0004224241418080807000000000000007ECD
:1038B00022100808447E000000C020202020201094
:1038C000202020202020C0001010101010101010F8
:1038D000101010101010101000060808080808102A
:1038E00008080808080806000C32C20000000000A2
:1038F00000000000000000000000000000000000C8
:1039000000000000000000000000000000000000B7
:1039100000000000000000000000000000000000A7
:103920000000000000000000000000000000000097
:103930000000000000000000000000000000000087
:103940000000000000008003C003C003C003C003E8
:103950008003800180018001000100000000000060
:103960008003C003C00380030000000000000000CB
:103970000000000000000000000000000000000047
:10398000000000000000300C781E781E380E300C4D
:10399000300C300C100C0000000000000000000093
:1039A0000000000000000000000000000000000017
:1039B0000000000000000000000000000000000007
:1039C000000000000000C010C018C01840186018A7
:1039D000FC3FFC3F600C200C300CFC3FFC3F3006F1
:1039E000100618061802180300000000000000006E
:1039F00000000000000000000000000000000000C7
:103A0000000000000001C00F301D381938113801C6
:103A1000F801F801F007E00F801F001F001D003DB6
:103A200008191819380DF007000100000000000007
:103A30000000000000000000000000000000000086
:103A400007300C181C181C0C1C061C061C038C01CF
:103A500087F1C0B8609C209C309C189C089C0CB8D6
:103A600006F0000000000000000000000000000060
:103A70000000000000000000000000000000000046
:103A8000000000000000E003300738063806380662
:103A90003803F80078F8F670F331E333C31FC30F2F
:103AA000879F8FFFFF7E3F3800000000000000006E
:103AB0000000000000000000000000000000000006
:103AC000000000000000C001C001C001C001C00131
:103AD000C000800080000000000000000000000026
:103AE00000000000000000000000000000000000D6
:103AF00000000000000000000000000000000000C6
:103B000000000000000000080006000380038001A0
:103B1000C001C001E001E000E000E000E000E000E2
:103B2000E000E001C001C001800180030003000645
:103B3000000800000000000000000000000000007D
:103B400000000000000030006000C0008001800321
:103B500080030007000700070007000700070007B1
:103B6000000700070007800380038001C000600099
:103B70003000000000000000000000000000000015
:103B8000000000000000800180033019781EF01F43
:103B90008001C006E00E600E000000000000000082
:103BA0000000000000000000000000000000000015
:103BB0000000000000000000000000000000000005
:103BC00000000000000000008001800180018001F1
:103BD00080018001FE7FFE7F8001800180018001E5
:103BE00080018001000000000000000000000000D3
:103BF00000000000000000000000000000000000C5
:103C000000000000000000000000000000000000B4
:103C100000000000000000000000000000000000A4
:103C20008003C003C0078007000600028001C000B7
:103C30000000000000000000000000000000000084
:103C40000000000000000000000000000000000074
:103C5000000000000000000000000000E00FE00F86
:103C60000000000000000000000000000000000054
:103C70000000000000000000000000000000000044
:103C80000000000000000000000000000000000034
:103C90000000000000000000000000000000000024
:103CA0008001C003C003800100000000000000008C
:103CB0000000000000000000000000000000000004
:103CC00000000000000000060006000200030003E0
:103CD0000001800180018000C000C0004000600041
:103CE00060006000300030000000000000000000B4
:103CF00000000000000000000000000000000000C4
:103D0000000000000000C003600E700C701C781CE6
:103D1000781C783C783C783C783C783C781C781C63
:103D2000701C700C600EC00300000000000000005A
:103D30000000000000000000000000000000000083
:103D400000000000000000028003E003F003800395
:103D5000800380038003800380038003800380034B
:103D600080038003C003F01F00000000000000007B
:103D70000000000000000000000000000000000043
:103D8000000000000000C003F007F00F180F000F44
:103D9000000E000E000E0007000380038001C0002B
:103DA0006010F01FF01FF80F00000000000000007E
:103DB0000000000000000000000000000000000003
:103DC000000000000000C007E00F100F000E000E02
:103DD00000078007C00F801F001E001C001C001C75
:103DE000181C7C0CF807F001000000000000000027
:103DF00000000000000000000000000000000000C3
:103E0000000000000000000C000E000F000F800FEB
:103E1000400F200F200F100F080FF83FF83FF83F1A
:103E2000000F000F000F000F000000000000000056
:103E30000000000000000000000000000000000082
:103E4000000000000000C03FE01FE01F2000100045
:103E5000F001F807F80F801F001E003C0038001822
:103E600038187818F80CF007000000000000000077
:103E70000000000000000000000000000000000042
:103E8000000000000000003C000F8003C001E000C3
:103E9000F0007000F807781E781C781C783C783C9D
:103EA000781C701CE00EC00700000000000000003D
:103EB0000000000000000000000000000000000002
:103EC000000000000000F03FF03FF81F1818001C31
:103ED000000C000C000C00060006000600030003A6
:103EE000000380018001800100000000000000004C
:103EF00000000000000000000000000000000000C2
:103F0000000000000000C007700C701C781C781CBA
:103F1000F81CF00DE007C00FE01F301E383E383CA3
:103F2000381C381C700EE007000000000000000084
:103F30000000000000000000000000000000000081
:103F4000000000000000C003700E701E381C381CFA
:103F5000783C783C783C701CE01F001E000E000F7F
:103F60000007C003F001380000000000000000005E
:103F70000000000000000000000000000000000041
:103F80000000000000000000000000000000000031
:103F90008003C003C0038003000000000000000095
:103FA0008003C003C0038003000000000000000085
:103FB0000000000000000000000000000000000001
:103FC00000000000000000000000000000000000F1
:103FD0008003C003C0038003000000000000000055
:103FE0008003C003C007C007000200038001C000B7
:103FF00000000000000000000000000000000000C1
:104000000000000000000000000000000000006050
:104010000078001FE003F8001E00F800E003001F16
:1040200000780060000000000000000000000000B8
:104030000000000000000000000000000000000080
:104040000000000000000000000000000000000070
:104050000000FE7FFE7F000000000000FE7FFE7F6C
:104060000000000000000000000000000000000050
:104070000000000000000000000000000000000040
:10408000000000000000000000000000000006002A
:104090003E00F800C007003E0078003EC007F80070
:1040A0003E000600000000000000000000000000CC
:1040B0000000000000000000000000000000000000
:1040C000000000000000C007300E301E701C301CC5
:1040D000001E000E0007000180000000000000002C
:1040E000C001C003C003C0010000000000000000C8
:1040F00000000000000000000000000000000000C0
:10410000000000000000E00F387006C003800100CE
:10411000C01DE01E701E381E380E3C0E1C0F1C0702
:104120009C875CC77C671C1E0000018006C01C3891
:10413000F00F000000000000000000000000000080
:1041400000000000000080018001C003C003C00720
:10415000A007A007900F100F101F081EF81F043EA5
:10416000043C067C07F81FFE000000000000000071
:10417000000000000000000000000000000000003F
:10418000000000000000FE0F783E787C7878787898
:104190007878783C781EF80F783C787878F878F85A
:1041A00078F87878783CFE1F0000000000000000DE
:1041B00000000000000000000000000000000000FF
:1041C000000000000000C00FF0F038E03CC01E808E
:1041D0001E001F001F000F001F001F001F001E00F9
:1041E0003E003C40F830C00F00000000000000001E
:1041F00000000000000000000000000000000000BF
:10420000000000000000FF073E1E3C3C3C783C786C
:104210003CF83CF83CF03CF03CF03CF83CF83C7896
:104220003C783C3C3E1EFF07000000000000000000
:10423000000000000000000000000000000000007E
:10424000000000000000FE3F7830782078207800E1
:10425000780478047806F8077806780478047800FB
:10426000784078407870FE7F000000000000000079
:10427000000000000000000000000000000000003E
:10428000000000000000FE7F7870786078407800C1
:104290007808780C780EF80F780E780C780878008B
:1042A000780078007800FE010000000000000000A7
:1042B00000000000000000000000000000000000FE
:1042C000000000000000C09F70F038E03CC01E807D
:1042D0001F001F001F000F001F001FFC1FF01EF01B
:1042E0001EF03CF070F0C01F000000000000000055
:1042F00000000000000000000000000000000000BE
:10430000000000000000FFFE3EF83CF03CF03CF0F6
:104310003CF03CF03CF0FCFF3CF03CF03CF03CF06E
:104320003CF03CF03EF8FFFE000000000000000002
:10433000000000000000000000000000000000007D
:10434000000000000000F00FC003C003C003C00362
:10435000C003C003C003C003C003C003C003C00345
:10436000C003C003C003F00F000000000000000005
:10437000000000000000000000000000000000003D
:10438000000000000000C07F001F000F000F000FA2
:10439000000F000F000F000F000F000F000F180F8D
:1043A0003C0F1C0F1807F003000000000000000085
:1043B00000000000000000000000000000000000FD
:1043C0000000000000007FF81E701E301E081E0452
:1043D0001E029E01DE01FE03DE079E0F1E0F1E1F42
:1043E0001E3E1E7C1EFC7FFE000000000000000040
:1043F00000000000000000000000000000000000BD
:10440000000000000000FE017800780078007800CD
:10441000780078007800780078007800780078805C
:1044200078C078C078E0FEFF0000000000000000C7
:10443000000000000000000000000000000000007C
:1044400007F00FF00FE81FE81EE81EE43EE43CE62C
:104450007CE278E278E1F0E1F0E1F0E0E0E0E0F049
:1044600043FC00000000000000000000000000000D
:10447000000000000000000000000000000000003C
:104480000000000000003FF83E607C20FC20F4218A
:10449000E423E423C427842F043F043E043E043C69
:1044A0000438043006201F20000000000000000037
:1044B00000000000000000000000000000000000FC
:1044C000000000000000E00F78383C701EF01EE095
:1044D0001FE01FE01FE00FE01FE01FE01FE01EF0E5
:1044E0001EF03C707838E00F000000000000000073
:1044F00000000000000000000000000000000000BC
:10450000000000000000FF0F7C1E783C787C78786B
:10451000787C783C781EF80F780078007800780076
:10452000780078007C00FF0100000000000000001F
:10453000000000000000000000000000000000007B
:10454000000000000000E007381C1E380F780FF054
:104550000FF00FF00FF007F00FF00FF00FF00FF06B
:104560000F781E383C1CF00FC0038007000F00FEC0
:10457000000000000000000000000000000000003B
:10458000000000000000FF0F3E3E3C3C3C783C78C1
:104590003C783C3C3C1EFC07BC0F3C0F3C1F3C3EA7
:1045A0003C3C3C7C3EF8FFF00000000000000000B6
:1045B00000000000000000000000000000000000FB
:1045C000000000000000E003301E18183C187C10AA
:1045D000FC01F807F80FF01FC03F003F003C043813
:1045E0000C381C183C0CC407000000000000000040
:1045F00000000000000000000000000000000000BB
:10460000000000000000FEFFC6C3C083C003C0035B
:10461000C003C003C003C003C003C003C003C00382
:10462000C003C003C007F01F00000000000000002E
:10463000000000000000000000000000000000007A
:10464000000000000000FFF83E603C203C203C20C1
:104650003C203C203C203C203C203C203C203C207A
:104660003C203C107818E00700000000000000002B
:10467000000000000000000000000000000000003A
:104680000000000000007FF81EE03E603C203C205F
:1046900078107810F808F008F00CE005E005E00369
:1046A000C003C00180018001000000000000000084
:1046B00000000000000000000000000000000000FA
:1046C000F38FC103C10783078307830F878FC78FCA
:1046D0004F9E4FDE2F7E3F7C3E3C1E3C1C380C180C
:1046E0000C180000000000000000000000000000A6
:1046F00000000000000000000000000000000000BA
:10470000000000000000FFFC3E707C107C08F80CEC
:10471000F005F003E003C007C007C00F201F101E04
:10472000083E0C7C0EFC3FFE000000000000000074
:104730000000000000000000000000000000000079
:104740000000000000007FF03E603E603C207810DA
:10475000F810F008F00DE005E003C003C003C0034B
:10476000C003C003C003F81F0000000000000000E9
:104770000000000000000000000000000000000039
:10478000000000000000FC7F1C3C043E041F000FE2
:10479000800F8007C007E003E003F001F000F8009D
:1047A0007C807CC03EF0FEFF0000000000000000A6
:1047B00000000000000000000000000000000000F9
:1047C000000000000000C00FC003C001C001C00114
:1047D000C001C001C001C001C001C001C001C001D1
:1047E000C001C001C001C001C001C001C001C003BF
:1047F000C00F0000000000000000000000000000EA
:104800000000000030003000200060006000400028
:10481000C000C0008000800180010001000300038F
:10482000000200060006000000000000000000007A
:104830000000000000000000000000000000000078
:10484000000000000000E003800380038003800379
:104850008003800380038003800380038003800340
:104860008003800380038003800380038003800330
:10487000E003000000000000000000000000000055
:1048800000000000000000018003C003C006600CAF
:10489000200C301810181830000000000000000034
:1048A0000000000000000000000000000000000008
:1048B00000000000000000000000000000000000F8
:1048C00000000000000000000000000000000000E8
:1048D00000000000000000000000000000000000D8
:1048E0000000000000000000000000000000FC7F4D
:1048F000FC7F00000000000000000000000000003D
:10490000000000000000E000C00180010001000084
:104910000000000000000000000000000000000097
:104920000000000000000000000000000000000087
:104930000000000000000000000000000000000077
:104940000000000000000000000000000000000067
:10495000E007300E780E701E001E801F601E701E55
:10496000781E781FF83F701C000000000000000057
:104970000000000000000000000000000000000037
:104980000000000000007C007800780078007800CB
:10499000780FF81C781C783C783C783C783C783C64
:1049A000781C781C780EC80700000000000000008A
:1049B00000000000000000000000000000000000F7
:1049C00000000000000000000000000000000000E7
:1049D000C007600E700E780E7800780078007800BE
:1049E000F800F008F00FC003000000000000000015
:1049F00000000000000000000000000000000000B7
:104A0000000000000000001F001E001E001E001E0F
:104A1000E01E381F381E3C1E3C1E3C1E3C1E3C1E29
:104A20003C1E381E783EF00F000000000000000021
:104A30000000000000000000000000000000000076
:104A40000000000000000000000000000000000066
:104A5000C0036006700E780E781EF81F780078008C
:104A60007800F008F007C00300000000000000001C
:104A70000000000000000000000000000000000036
:104A8000000000000000003E007B803B80038003AC
:104A9000E00F800380038003800380038003800392
:104AA000800380038003E00F00000000000000008E
:104AB00000000000000000000000000000000000F6
:104AC00000000000000000000000000000000000E6
:104AD000E03F700E781E381C381C781E700EE00304
:104AE00030003800F81FF83FF03F18301830381801
:104AF000E0070000000000000000000000000000CF
:104B00000000000000007C00780078007800780049
:104B1000780FF80F781E781E781E781E781E781E83
:104B2000781E781E781EFC3F000000000000000088
:104B30000000000000000000000000000000000075
:104B4000000000000000C001C003C003C00100005D
:104B5000E003C003C003C003C003C003C003C0031D
:104B6000C003C003C003E007000000000000000015
:104B70000000000000000000000000000000000035
:104B80000000000000008003800380038003000019
:104B9000C0038003800380038003800380038003BD
:104BA00080038003800380038003B003B803B8034D
:104BB000F001000000000000000000000000000004
:104BC0000000000000007C00780078007800780089
:104BD000783E781C780C780478027803F807780F10
:104BE000780F781E783CFC7E00000000000000007A
:104BF00000000000000000000000000000000000B5
:104C0000000000000000E003C003C003C003C003B5
:104C1000C003C003C003C003C003C003C003C0037C
:104C2000C003C003C003E007000000000000000054
:104C30000000000000000000000000000000000074
:104C40000000000000000000000000000000000064
:104C5000F778FF7DE7F3E7F1E7F1E7F1E7F1E7F157
:104C6000E7F1E7F1E7F1FFFB0000000000000000C2
:104C70000000000000000000000000000000000034
:104C80000000000000000000000000000000000024
:104C90007C0FF80F781E781E781E781E781E781EFE
:104CA000781E781E781EFC3F000000000000000007
:104CB00000000000000000000000000000000000F4
:104CC00000000000000000000000000000000000E4
:104CD000C007600E701C781C781C783C783C781CEF
:104CE000781C701C600EC00700000000000000006F
:104CF00000000000000000000000000000000000B4
:104D000000000000000000000000000000000000A3
:104D1000FC0F781E781C783C783C783C783C783CDA
:104D2000783C781CF81CF807780078007800780048
:104D3000FC00000000000000000000000000000077
:104D40000000000000000000000000000000000063
:104D5000E01B701E381E381E3C1E3C1E3C1E3C1EB6
:104D60003C1E381E381EF01F001E001E001E001EB6
:104D7000007F0000000000000000000000000000B4
:104D80000000000000000000000000000000000023
:104D9000F81CF01EF01CF018F000F000F000F0001D
:104DA000F000F000F000F80100000000000000003A
:104DB00000000000000000000000000000000000F3
:104DC00000000000000000000000000000000000E3
:104DD000E00570063004F000F001E003C007800F2A
:104DE000100F100E3006C00300000000000000008D
:104DF00000000000000000000000000000000000B3
:104E00000000000000000000000000038003C00359
:104E1000E00FC003C003C003C003C003C003C0034E
:104E2000C003C00BC00780030000000000000000AA
:104E30000000000000000000000000000000000072
:104E40000000000000000000000000000000000062
:104E50007C1F781E781E781E781E781E781E781E9D
:104E6000781E781FF81FF03E0000000000000000D0
:104E70000000000000000000000000000000000032
:104E80000000000000000000000000000000000022
:104E9000FC3C78107018F008E008E005E005C00759
:104EA000C0038003800180010000000000000000BA
:104EB00000000000000000000000000000000000F2
:104EC00000000000000000000000000000000000E2
:104ED000DFEF8FC78E479E479E2F5C2F7C2E7C1E58
:104EE000381C381C380C10080000000000000000BE
:104EF00000000000000000000000000000000000B2
:104F000000000000000000000000000000000000A1
:104F1000FC3EF00CF004E003C003C00380078007F0
:104F2000400F200F301E7C3F0000000000000000FA
:104F30000000000000000000000000000000000071
:104F40000000000000000000000000000000000061
:104F5000FC3C78187018F008E008E005E005C00790
:104F6000C003800380010001000198001C001800AC
:104F700078000000000000000000000000000000B9
:104F80000000000000000000000000000000000021
:104F9000F81F180F08078007C003C003E001E001F5
:104FA000F0007008780CFC0F00000000000000000A
:104FB00000000000000000000000000000000000F1
:104FC000000000000000000E000780038003800343
:104FD0008003800380038003C0012000C0008001A3
:104FE0008003800380038003800380038003000725
:104FF000000E0000000000000000000000000000A3
:105000000000000000000003000300030003000391
:105010000003000300030003000300030003000378
:105020000003000300030003000300030003000368
:10503000000300000000000000000000000000006D
:105040000000000000007000C000C001C001C001ED
:10505000C001C001C001C0010003000400038001C1
:10506000C001C001C001C001C001C001C001E00019
:1050700070000000000000000000000000000000C0
:105080000000000000000000000000000000000020
:105090000000000000007C20FC21C63F021E000032
:1050A0000000000000000000000000000000000000
:1050B00000000000000000000000000000000000F0
:1050C00000000000000000000000000000000000E0
:1050D00000000000000000000000000000000000D0
:1050E00000000000000000000000000000000000C0
:1050F00000000000000000000000000000000000B0
:10510000000000000000000000000000000000009F
:10511000000000000000000000000000000000008F
:10512000000000000000000000000000000000007F
:10513000000000000000000000000000000000006F
:105140000000000000000000F00100F80300F80378
:1051500000F80300F80300F80100F00100F001007E
:10516000F00100E00000E00000E00000400000402E
:105170000000400000000000000000000000E0000F
:1051800000F80300F80300F80300F80300E0000053
:10519000000000000000000000000000000000000F
:1051A00000000000000000000000000000000000FF
:1051B00000000000000000000000000000000000EF
:1051C000F08007F8C10FF8C10FF8C10FF8C10FF058
:1051D0008007F08007F08007600003600003600034
:1051E00003000000000000000000000000000000BC
:1051F00000000000000000000000000000000000AF
:10520000000000000000000000000000000000009E
:10521000000000000000000000000000000000008E
:10522000000000000000000000000000000000007E
:10523000000000000000000080030E80030EC0018B
:1052400007C00107C00107C00107E08003E0800339
:10525000FFFF0FFFFF0F70C00170C00170C0017031
:10526000C00138E000FFFF0FFFFF0F38E0001C70A7
:10527000001C70001C70001C70000E38000E3800FE
:10528000000000000000000000000000000000001E
:10529000000000000000000000000000000000000E
:1052A00000000000000000000000000000000C00F2
:1052B00080FF00F0CC07780C0F3C0C0E3E0C0C3E2F
:1052C0000C0C7E0C08FE0C00FC0F00FC0F00F03FE5
:1052D00000E0FF0080FF0100FE0700FC0F00EC0F64
:1052E00000CC0F028C0F020C0F060C0F0E0C0F1EC1
:1052F0008C077ECC03F07F00000C00000C00000047
:10530000000000000000000000000000000000009D
:10531000000000000000000000000000000000008D
:105320000000000000000000801F00E07900F8F09D
:1053300001F8F001FCF003FCF003FCF003FCF003C7
:10534000F8F001F8F001F07900C01F000000000043
:10535000000000000800000C00000E00000F00001C
:105360000700800300C00100E00100F000007800A9
:10537000000000000000000000000000000000002D
:10538000000000000000000000000000000000001D
:10539000000000000000000000000000000000000D
:1053A00000C00F00700C003808003C00003E0000F8
:1053B0007E00007E0800FE0C00FE0700FC0300FCDF
:1053C0000780FB0FE0F80F78F00F7CE00F7CC00F38
:1053D0007E800FFE000FFE010EFE030CFC0F0EF888
:1053E000FF07F0FF01C03F000000000000000000C8
:1053F00000000000000000000000000000000000AD
:10540000000000000000000000000000000000009C
:105410000000000000000000780000FC0000FC001C
:1054200000FC0000FC00007800007800007800001C
:1054300030000030000030000000000000000000DC
:10544000000000000000000000000000000000005C
:10545000000000000000000000000000000000004C
:10546000000000000000000000000000000000003C
:10547000000000000000000000000000000000002C
:10548000000000000000000000000000000000001C
:10549000001800000E00000700800300E00100E09B
:1054A0000100F00000F80000F800007C00007C0023
:1054B000007E00007E00007E00007E00007E000076
:1054C0007E00007E00007E00007C00007C00007CEE
:1054D0000000F80000F80000F00000E00100C0014A
:1054E00000800300000700000E000018000000000C
:1054F00000000000000000000000000000000000AC
:1055000000000000000000000300000E00001C006E
:1055100000380000700000F00000E00100E003002F
:10552000E00300C00700C00700C00700C00F00C0B4
:105530000F00C00F00C00F00C00F00C00F00C00F51
:1055400000C00F00C00700C00700E00300E0030038
:10555000E00100F000007000003800001C00000EA8
:105560000000030000000000000000000000000038
:10557000000000000000000000000000000000002B
:10558000000000000E00001F00001F00000E007849
:10559000C403F8E403F0FF01000E00001B00E0F17B
:1055A00000F0F101F0F101E0E00000000000000077
:1055B00000000000000000000000000000000000EB
:1055C00000000000000000000000000000000000DB
:1055D00000000000000000000000000000000000CB
:1055E00000000000000000000000000000000000BB
:1055F00000000000000000000000000000000000AB
:1056000000000000001C00001C00001C00001C002A
:10561000001C00001C00001C00001C00FFFF0FFF0E
:10562000FF0F001C00001C00001C00001C00001CE0
:1056300000001C00001C00001C0000000000000016
:10564000000000000000000000000000000000005A
:10565000000000000000000000000000000000004A
:10566000000000000000000000000000000000003A
:10567000000000000000000000000000000000002A
:10568000000000000000000000000000000000001A
:10569000000000000000000000000000000000000A
:1056A000000000000000780000FC0000FE0100FE89
:1056B0000100FE0100FC0100C00100C00000E0008C
:1056C000007000003800000C000000000000000026
:1056D00000000000000000000000000000000000CA
:1056E00000000000000000000000000000000000BA
:1056F00000000000000000000000000000000000AA
:105700000000000000000000000000000000000099
:105710000000000000FF0F00FF0F00FF0F0000005F
:105720000000000000000000000000000000000079
:105730000000000000000000000000000000000069
:105740000000000000000000000000000000000059
:105750000000000000000000000000000000000049
:105760000000000000000000000000000000000039
:105770000000000000000000000000000000000029
:105780000000000000000000000000000000000019
:10579000000000000000000700C01F00C01F00C084
:1057A0001F00C01F000007000000000000000000F4
:1057B00000000000000000000000000000000000E9
:1057C00000000000000000000000000000000000D9
:1057D000000000000000000000C00100E00100E047
:1057E0000000E00000700000700000380000380089
:1057F000003C00001C00001C00000E00000E000019
:105800000F00000700000700800300800300C001B4
:1058100000C00100E00100E00000E00000700000B6
:105820000000000000000000000000000000000078
:105830000000000000000000000000000000000068
:105840000000000000000000000000000000000058
:10585000C01F0070700038E0001CC0011EC0031F94
:10586000C0071FC0071FC0071FC00F1FC00F1FC0EA
:105870000F1FC00F1FC00F1FC00F1FC00F1FC00F73
:105880001FC0071FC0071FC0071EC0033CC0013850
:10589000E000707000C01F00000000000000000069
:1058A00000000000000000000000000000000000F8
:1058B00000000000000000000000000000000000E8
:1058C0000000000000000000001800001F00C01FC2
:1058D00000F81F00EC1F00801F00801F00801F00C9
:1058E000801F00801F00801F00801F00801F00801D
:1058F0001F00801F00801F00801F00801F00801F6E
:1059000000801F00801F00801F00C03F00FCFF01BF
:105910000000000000000000000000000000000087
:105920000000000000000000000000000000000077
:105930000000000000000000000000000000000067
:10594000C01F00F07F00F8FF00FCFF010EFE030601
:10595000F80302F00300F00300F00100F00100F092
:1059600000007800003800001C00000C0000060059
:1059700000030080010C40000EE0FF07F0FF07FC71
:10598000FF07FEFF03FFFF03000000000000000010
:105990000000000000000000000000000000000007
:1059A00000000000000000000000000000000000F7
:1059B0000000000000000000803F00F0FF0018FC25
:1059C0000106F80300F00300F00300F00100780086
:1059D000003C0000FF00C0FF0300FF0700FC0F00B9
:1059E000F00F00E00F00E00F00C00F00C00700C084
:1059F000070EC0033FE001FFF000FE7F00F80F003C
:105A00000000000000000000000000000000000096
:105A10000000000000000000000000000000000086
:105A20000000000000000000000000000000000076
:105A300000C00100E00100F00100F80100FC0100DD
:105A4000FE0100FB0180F901C0F80160F80130F8A7
:105A50000118F8010CF80106F80107F801FFFF0F23
:105A6000FFFF0FFFFF0FFFFF0F00F80100F801001D
:105A7000F80100F80100F80100000000000000003B
:105A80000000000000000000000000000000000016
:105A90000000000000000000000000000000000006
:105AA0000000000000000000C0FF0FE0FF07E0FF63
:105AB00007F0FF07F0FF03180000180000FC0300C8
:105AC000FC1F00FEFF00FEFF01FFFF0300FF0700B9
:105AD000F00F00C00F00800F00000F00000E00004C
